:020000040800F2
:10000000983D0024AD020008FF6C0008AB5E0008BC
:10001000FD6C00080D060008417D0008000000008E
:10002000000000000000000000000000D16F000888
:100030004D08000800000000016D0008F16F000885
:10004000C7020008C7020008C7020008C70200086C
:10005000C7020008C7020008C7020008C70200085C
:10006000C7020008C70200084F080008C7020008BE
:10007000C702000811060008C70200081D06000894
:10008000C7020008C7020008C7020008C70200082C
:10009000C7020008C7020008C7020008C70200081C
:1000A000C7020008C7020008C7020008C70200080C
:1000B000C7020008C7020008C7020008C7020008FC
:1000C000C7020008C7020008C7020008C7020008EC
:1000D000C7020008C7020008C7020008C7020008DC
:1000E000C7020008C702000800000000C70200089D
:1000F000C7020008C7020008C7020008C7020008BC
:1001000059080008C7020008AD710008C7020008BE
:10011000DD760008C7020008C7020008C702000811
:10012000C7020008C7020008C7020008C70200088B
:10013000C7020008C7020008C7020008C70200087B
:1001400000000000000000000000000000000000AF
:10015000C7020008C7020008C7020008C70200085B
:10016000C7020008C7020008C7020008C70200084B
:10017000C7020008C7020008C7020008C70200083B
:10018000C7020008C7020008C7020008C70200082B
:10019000C7020008C7020008C7020008C70200081B
:1001A000B5620008A962000829060008C702000815
:1001B000C7020008C7020008C7020008C7020008FB
:1001C000C7020008C7020008C7020008C7020008EB
:1001D000C7020008C7020008C7020008C7020008DB
:1001E000C7020008C7020008C7020008C7020008CB
:1001F000C7020008C7020008C7020008C7020008BB
:10020000C7020008C7020008C7020008C7020008AA
:10021000C7020008C7020008C7020008C70200089A
:10022000C7020008C7020008C7020008000000005B
:10023000C7020008C702000800000000C70200084B
:10024000C7020008C7020008C7020008C70200086A
:10025000C7020008C7020008C7020008C70200085A
:10026000C7020008C7020008C7020008C70200084A
:10027000C7020008C7020008C7020008000000000B
:10028000C7020008C7020008C702000800000000FB
:1002900000000000C7020008DFF80CD000F09AF858
:1002A00000480047718C0008983D002406488047AC
:1002B00006480047FEE7FEE7FEE7FEE7FEE7FEE74B
:1002C000FEE7FEE7FEE7FEE7D170000899020008AE
:1002D0002DE9F05F0546002092469B46884606467B
:1002E000814640241BE0284641464746224600F00E
:1002F00061F853465A46C01A914110D31146184628
:10030000224600F048F82D1A67EB01084F462246B6
:100310000120002100F03FF817EB00094E41201E9C
:10032000A4F10104DFDC484631462A464346BDE8D5
:10033000F09F10B5431A934209D28318881803E03E
:1003400010F8011D03F8011D521EF9D210BD40EA3C
:1003500001039B0703D009E008C9121F08C0042A43
:10036000FAD203E011F8013B00F8013B521EF9D22A
:1003700010BDD2B201E000F8012B491EFBD270473C
:100380000022F6E710B513460A4604461946FFF761
:10039000F0FF204610BD202A04DB203A00FA02F1CB
:1003A000002070479140C2F1200320FA03F3194363
:1003B00090407047202A04DB203A21FA02F0002105
:1003C000704721FA02F3D040C2F120029140084365
:1003D00019467047064C074D06E0E06840F00103FF
:1003E00094E8070098471034AC42F6D3FFF758FF63
:1003F00080F80108A0F8010870B53A490546006880
:10040000884202D0384A904202D1D1F8080302E073
:100410003648D0F8080310F4403F11D004F09AF8A1
:1004200004466868B0F5803F06D0B0F5003F03D0C1
:10043000B0F5403F27D101E0000C18E0A40822E00D
:1004400000214FF4002003F01DF904466868810381
:10045000890B18D181140C2915D2DFE801F014069C
:1004600006060606060B0D0F1113800C4000B4FBA8
:10047000F0F408E0240906E0640904E0A40902E0BD
:10048000E40900E0240A02F01FFA41F20301884265
:1004900008D8174884422868816813D821F48071ED
:1004A000816070BD13496008884204D8286881685B
:1004B00021F44071F4E71049884206D82868816821
:1004C00021F4407141F48071EAE70C4988422868C0
:1004D000816804D821F4407141F40071E0E741F4EF
:1004E0004071DDE700200240002102400060025818
:1004F000002D3101105E5F0020BCBE0040787D0100
:1005000002F0E8B90F4870B500240168C1B1491E76
:10051000016015D10C48016821F0800101600B4D8C
:100520004FF40061284601F0E7FF4FF48051284660
:1005300001F0E2FF064802F029FA08B16FF0070463
:10054000204670BD08000024F4440258001C0258E4
:1005500024050024114A104870B50E49002411608A
:100560000168491C0160012912D1104602F02AFAE3
:1005700070B90A4805F09AFC084806F031FA6FF0A5
:10058000070520B90548002102F0AAF900B12C4660
:10059000204670BD001C00580800002424050024DB
:1005A0003EB54FF4805500248DE82C000A460146E4
:1005B0000848022302F066FA48B1064802F000FA41
:1005C000042802D06FF0650401E06FF003042046B8
:1005D0003EBD0000240500243EB54FF480550024A4
:1005E0008DE82C000A4601460748022302F0FCFA77
:1005F00028B1054802F0E4F9042802D0241F20465F
:100600003EBD6FF06504FAE724050024FEE7000014
:10061000014801F09BB9000034040024014801F0B6
:1006200095B90000AC040024014800F0ABBD000007
:10063000F0000024294A016891423AD0274A183232
:10064000914236D0254A3032914232D0234A483244
:1006500091422ED0214A603291422AD01F4A7832EC
:10066000914226D01D4A9032914222D01B4AA83294
:1006700091421ED01A4A91421BD0194A1832914217
:1006800017D0174A3032914213D0154A483291425E
:100690000FD0134A603291420BD0114A7832914206
:1006A00007D00F4A9032914203D00D4AA8329142AE
:1006B00011D1CAB21823103AB2FBF3F26FF3090159
:1006C000032A02F00703074AD25CC26500D9091D5C
:1006D00081650846704721F0FF01F9E710000240EC
:1006E0001004024004A1000830B5224A0123016829
:1006F0009142CAB21BD01F4C1434A14217D01D4CDA
:100700002834A14213D01B4C3C34A1420FD0194CC9
:100710005034A1420BD0174C6434A14207D0154C81
:100720007834A14203D0134C8C34A1420CD1142153
:10073000114C083AB2FBF1F10F4A803201F01F056B
:1007400004EB8101AB4010E00C4D1824103A0D442D
:10075000B2FBF4F1A82D00D80831094A01F01F04BA
:1007600002EB8101064AA3408032603080E80E002F
:1007700030BD00000854025800580258F0FBFDBF7D
:100780000008024010B50279531E072B2DD8174CD4
:100790000168A1421BD0154C1434A14217D0134C50
:1007A0002834A14213D0114C3C34A1420FD00F4C3D
:1007B0005034A1420BD00D4C6434A14207D00B4CF5
:1007C0007834A14203D0094C8C34A14203D10849AA
:1007D000074C443102E00749064C443104EB8202E5
:1007E000C0E91B2101219940416710BD08540258FE
:1007F000FC580258FC08024010B583694FF0C074E1
:10080000826A0146002053B1B3F5005F15D072B182
:10081000012A0CD0022A0AD0032A09D104E01AB115
:10082000012A06D0022A03D1C96AC90100D50120D4
:1008300010BDC96AA142FAD010BD002AF7D0012A22
:10084000F2D0022AF3D0032AF3D010BD7047102053
:1008500001F012BF72B6FEE7014804F01EBA0000B4
:1008600058010024F0B5D1E90843CD690A68C2B146
:100870000268254322F4F84213431D430560D1E981
:100880000125D1E903364C692A4345683343896918
:100890001A43EB0B2243DB030A431A434260002056
:1008A000F0BDD1E9012ED1E9036CD1E9057142EA2D
:1008B0000E0246EA0C0632433A430A4301682A43D1
:1008C00022431A436FF30E010A430260E7E7000078
:1008D0002DE9F04F8B8A6FF00F05264C4FF07F4BC0
:1008E000D1F80C9004EB03536FF0FF044FEA042A95
:1008F0001AB386684FEA09321F4FA2F580521A4395
:100900003E4032438260D1E900278E68521E05EBDB
:1009100007150F8A2A43C56804EB06240E7E0AEBEE
:10092000074322431A430BEB06610A4305F0704369
:100930001A43C2600020BDE8F08F91E804110F4E09
:10094000521E0F8A05EB08152A4304EB0C2C06EB0C
:1009500009350E7E42EA0C022A4385680AEB0744F9
:1009600022431A430BEB06610A4305F070431A4316
:100970008260DFE70000F0FFFF0F0FFF00F0FFFFD6
:100980002DE9F84F4FF0000B0446E54E0D46CDF82B
:1009900000B05F4690F85000DFF888A3012808D027
:1009A0004FF0010984F85090206805F06AFC18B1F6
:1009B00069E10220BDE8F88F21682868CA6903034D
:1009C00028D090FAA0F0B0FA80F000BF00F01F032A
:1009D00009FA03F00243CA61D5E900124FF00C0C8A
:1009E00020681F23C1F384610CEA921C02F01F02ED
:1009F000604493409140026B9A430A43026320682B
:100A000005F03FFC8046206805F037FC58EA0000FE
:100A100003D07FE0C0F38460D8E72068AA68296823
:100A200005F033FCC0490968B9EB117F06D1216894
:100A30006869C968C1F38201490008E02068C1689B
:100A4000C906C1686869F5D501F0100149088840F8
:100A5000296904292ED022682B6802EB810103F05A
:100A6000F8420B6E024303F0004010430866697EB3
:100A700022682869012917D05FF0000102EB80008D
:100A8000026E22F000420A430266287E21682A692B
:100A900001280CD000200B6902F01F02904023F4C3
:100AA000F04202430A6135E04FF00041E6E74FF4BF
:100AB0000060F0E720682978026E02F0F842B2EB9D
:100AC000816F03D1016E21F0004101662068297811
:100AD000426E02F0F842B2EB816F03D1416E21F019
:100AE0000041416620682978826E02F0F842B2EB3C
:100AF000816F03D1816E21F00041816620682978E1
:100B0000C26E02F0F842B2EB816F03D1C16E21F0E8
:100B10000041C1662068816811F0010F76D150F85C
:100B2000C02F95F80CC0814B29680CF0180C23FAE3
:100B30000CF3C1F313080B4022EA08021A430260C7
:100B40007B48E968814277D1286801031BD090FA7D
:100B5000A0F1B1FA81F1491C01F01F0109294FEA06
:100B6000003131D8002911D090FAA0F1B1FA81F109
:100B700001F1010101F01F0109FA01F209D100BFE1
:100B8000C0F3846109E0C0F38461E4E7C0F38461E9
:100B9000EEE790FAA0F1B1FA81F101F1010101F063
:100BA0001F0142EA816102D1C0F3846003E090FA40
:100BB000A0F0B0FA80F000F1010000F01F0000EB9F
:100BC000400041EA005133E000290ED090FAA0F134
:100BD000B1FA81F101F1010101F01F0109FA01F2FD
:100BE00006D100BFC0F3846106E0C0F38461F1E781
:100BF00090FAA0F1B1FA81F101F1010101F01F01B8
:100C000042EA816103D1C0F3846004E040E090FADD
:100C1000A0F0B0FA80F0474A00F1010000F01F0098
:100C200000EB400002EB005041EA000141F000718E
:100C3000AA68206805F029FBD5F800C0BCF1000FB8
:100C400026DA3D4B20683D49DFF8F490984201D008
:100C5000B04201D10A4600E04A469268984202F04A
:100C6000E07201D0B04209D19D68D6F8088005F045
:100C7000010508F0010845EA080503E0DAF8085024
:100C800005F0010545B1606D012740F02000606569
:100C9000384684F850B08DE62A4DAC451CD115027B
:100CA0001AD45045F4D1984202D0B04200D04946FF
:100CB0008B6842F4000023F0E07202438A6023490B
:100CC00021480968B1FBF0F04000801C00E0401EA4
:100CD00000900028FBD1DBE71D4DAC450CD1D501C0
:100CE0000AD45045D4D1984202D0B04200D04946EF
:100CF0008B6842F080700EE0164DAC45C8D15502AD
:100D0000C6D45045C4D1984202D0B04200D0494622
:100D10008B6842F4800023F0E07202438A60B7E7F8
:100D200000210240006002580010005CFFFF0F002D
:100D30000000FF47000020FE002002400023024088
:100D400000630258000084CB400D0300180000240B
:100D5000000052C70000B8CFF8B54FF000060400FD
:100D60003546009602D0606D10B107E00120F8BD55
:100D7000204600F005F9A66584F850602068816877
:100D8000C1F3407119B18168704A114081602068D7
:100D90008168C1F3007181B981686D4A114041F0E9
:100DA000805181606C496B480968B1FBF0F0401CD0
:100DB00000E0401E00900028FBD120688168C1F34C
:100DC000007141B9616D012541F010016165A16DAE
:100DD00041F00101A16505F054FA616DC90600D426
:100DE00020B1606D012540F0100093E0606D20F4AB
:100DF000807040F0020060652068816811F0010F8A
:100E00001FD1564A564B904201D0984207D1916863
:100E10009E6801F0010106F00106314303E05149EB
:100E2000896801F0010161B9904201D0984201D175
:100E30004D4800E04D488268616822F47C120A4304
:100E4000826001F041FD41F20301884202D9A068AD
:100E500010280CD0617D227FA368206B490341EAF2
:100E6000024118430843217F01290CD010E0607D26
:100E7000227F216B400340EA024241F01000104300
:100E800040F00C00EFE7218C394A02EB4141084366
:100E9000616A29B1A26A01F47871014342EA010052
:100EA0002168344BCA681A400243CA60206805F0C2
:100EB000E8F90646206805F0E0F930431DD12168C5
:100EC00044F20303267DE26AC86842EA8632984308
:100ED0001043C86094F8380001281ED020680169CA
:100EE00021F0010101612068626B016921F070410C
:100EF000114301612046FFF77FFAE068012820686E
:100F00001CD0016B21F00F010163606D20F0020025
:100F100040F0010060652846F8BD2068A28F164F9A
:100F2000D4E9101C154E07EB0247A36C026941EA95
:100F30000C013B43324019431143D3E7A269016BD3
:100F4000521E21F00F011143DEE70000C0FFFF5FDA
:100F5000C0FFFF7F400D0300180000240020024066
:100F60000021024000600258002302400063025842
:100F70000000FEFF03C0F0FF0100FFFF1EF800FCB1
:100F8000006882B00D49884216D10D48016841F0D1
:100F900080710160016801F080710091016841F089
:100FA00004010160006800F0040000904FF0006050
:100FB00002B0014603F0C6BF02B07047006002589D
:100FC000E0440258F0B50446C8074FF0000010D0C6
:100FD0001E23012603F01F0706FA07F50D4201D173
:100FE0005B1EF7D27AB1082A0BD0102A06D0182A35
:100FF00001D00120F0BD072BFBD204E0082BF8D272
:1010000001E0102BF5D22368596121688B6823F029
:10101000180313438B60F0BD10B5040010D0607F3F
:1010200020B900202077204600F032F821790220F4
:10103000607739B1D4E902122046FFF7C3FF48B107
:10104000012010BD2168114848612068816821F0A5
:10105000180181606079A0B12168206908610122CE
:1010600020686369816821F060011943816020680C
:10107000A369816821F080011943816062770020B3
:1010800010BD21684FF0FF30E8E70000B71DC10434
:1010900008B500680649884208D10648016841F44D
:1010A00000210160006800F40020009008BD0000ED
:1010B000004C0258E044025870470000F0B590F828
:1010C0006020012A22D0C1EBC102012780F86070A4
:1010D000022380F8613000EB8202284D138F168EB8
:1010E000B2F83CC0D46A1B05283244EA064643EAFB
:1010F0004C530A2C46EA03060AD0092C08D0137B6D
:1011000046EA036349B10B2C1AD01DE00220F0BD62
:10111000D36803F07F433343F4E701684C6AAC4380
:101120001C434C62016813688B6151680A2901D025
:1011300009291BD1D168026821F07F41916215E035
:10114000118B0F4D43EA81430168CC69AC431C43CA
:10115000CC61016813680B6151680A2901D0092923
:1011600004D1D168026821F07F411162002180F82A
:10117000617080F860100846F0BD00000F0033FF7A
:101180000F003FFF2DE9F0470446006800274FF0AD
:1011900004084FF0010946680568F10714D0E90515
:1011A00012D5036823F480730360606E40F0010081
:1011B00060662068C0F8089084F8618084F86070E8
:1011C000616A09B120468847B00615D5A80413D531
:1011D00020682022036823F40053036020688260A3
:1011E000606E40F00200606684F8618084F8607090
:1011F000616A09B120468847300715D5280513D5FF
:1012000020680822036823F400630360206882607A
:10121000606E40F00400606684F8618084F860705D
:10122000616A09B12046884770070CD568050AD560
:101230002068026822F4806202602068C0F808809A
:10124000204600F071F8B00713D5A80511D5206825
:101250000222036823F40073036020688260606EDA
:10126000606684F8619084F86070216A09B1204654
:101270008847F00612D5E80410D52068016821F4EB
:1012800080510160226810219160616E616684F86E
:101290006190204684F86070FFF70EFFBDE8F0878C
:1012A0002DE9F041040004D094F86100002518B144
:1012B00007E00120BDE8F081204684F8605000F08E
:1012C00035F8184E022084F861000123D4E900109B
:1012D000D4F81CC040F207120F6840EA0C003740F7
:1012E000384308602068A769A168466B3943964374
:1012F000314341632068E268016C6FF30F011143D1
:1013000001642068218AA28A466B090541EA42519C
:1013100026F4401211434163656684F86130002071
:10132000C8E70000BFFFF8FF7047000008B500687D
:101330000B49884212D10B48016841F0100101604D
:1013400000680022114600F0100000905A2001F0C1
:1013500043FFBDE808405A2001F030BF08BD00003F
:1013600000100052D44402582DE9F84F044601F011
:10137000B1FA00903CB194F83500022806D08021E3
:1013800061650020E4E00120BDE8F88FC74DC74E3D
:10139000C649183520683036DFF81483DFF8149317
:1013A0008842DFF814A3DFF814B32ED0A8422CD063
:1013B000B0422AD0404528D0484526D0504524D0B8
:1013C000584522D0BD4A183290421ED0BC4A9042A5
:1013D0001BD0BB4A1832904217D0B94A30329042E3
:1013E00013D0B74A483290420FD0B54A603290428B
:1013F0000BD0B34A7832904207D0B14A9032904233
:1014000003D0AF4AA832904209D1026822F01E02EE
:1014100002602068426922F08002426103E00268B3
:1014200022F00E02026027688F4238464DD0A84253
:101430004BD0B04249D0404547D0484545D05045B3
:1014400043D0584541D09D4A183290423DD09C4AE5
:1014500090423AD09A4A1832904236D0984A303266
:10146000904232D0964A483290422ED0944A60320E
:1014700090422AD0924A7832904226D0904A9032B6
:10148000904222D08E4AA83290421ED08D4A90427D
:101490001BD08C4A1432904217D08A4A283290428C
:1014A00013D0884A3C3290420FD0864A5032904244
:1014B0000BD0844A6432904207D0824A78329042FC
:1014C00003D0804A8C32974204D1206E026822F405
:1014D0008072026075492068884228D0A84226D0D0
:1014E000B04224D0404522D0484520D050451ED09F
:1014F00058451CD071491831884218D0704988422B
:1015000015D06F491831884211D06D493031884269
:101510000DD06B494831884209D069496031884211
:1015200005D067497831884201D06549903101681A
:1015300021F0010101600EE001F0CCF90099401AA0
:10154000052808D9202262650321002084F835107F
:1015500084F8340017E73868C007EDD1534A0121F9
:10156000206890422ED0A8422CD0B0422AD04045CC
:1015700028D0484526D0504524D0584522D04F4B3E
:10158000183398421ED04E4B98421BD04C4B183308
:10159000984217D04A4B3033984213D0484B4833C7
:1015A00098420FD0464B603398420BD0444B78336F
:1015B000984207D0424B9033984203D0404BA83317
:1015C000984208D194F85C703F23A06D07F01F0784
:1015D000BB40836007E094F85C30A06D03F01F030C
:1015E00001FA03F34360206890424DD0A8424BD0EB
:1015F000B04249D0404547D0484545D0504543D0FA
:10160000584541D02D4A183290423DD02C4A904244
:101610003AD02B4A1832904236D0294A3032904282
:1016200032D0274A483290422ED0254A603290422A
:101630002AD0234A7832904226D0214A90329042D2
:1016400022D01F4AA83290421ED01E4A90421BD080
:101650001C4A1432904217D01A4A2832904213D0B2
:10166000184A3C3290420FD0164A503290420BD06A
:10167000144A6432904207D0124A7832904203D022
:10168000104A8C3290420BD1D4E919024260E06ECC
:1016900030B1026822F480720260D4E91C02426018
:1016A000002084F8351084F834006DE61000024004
:1016B000580002407000024088000240A000024032
:1016C00010040240085402582DE9F05F28B190F848
:1016D0003510022904D0802141650120BDE8F09F2A
:1016E000904C904B0168183C18338E4ADFF83C92BE
:1016F000A1428D4CDFF838E28E4FDFF83CB2DFF8C4
:101700003CA28F4D8F4E31D091422FD099422DD097
:10171000A1422BD0494529D0714527D0B94225D0C7
:10172000DFF810C20CF1180C61451FD0DFF808C2B9
:10173000ACF1600C614519D0DFF8FCC1ACF1480C8C
:10174000614513D0DFF8F0C1ACF1300C61450DD02C
:10175000DFF8E4C1ACF1180C614507D0594505D05C
:10176000514503D0A94201D0B1422CD1DFF8B4C118
:101770004FF0040880F83580ACF1180C61451DD09D
:1017800091421BD0994219D0A14217D0494515D09A
:10179000714513D0B94211D06648183081420DD03E
:1017A00065486038814209D063484838814205D095
:1017B00061483038814201D05F481838086820F00D
:1017C00001000860ABE0D1F800C02CF00E08DFF893
:1017D00054C1C1F80080ACF1180C0168614527D0F4
:1017E000914225D0994223D0A14221D049451FD012
:1017F00071451DD0B9421BD0DFF838C10CF1180C6F
:10180000614515D0DFF830C1ACF1600C61450FD0F7
:10181000DFF824C1ACF1480C614509D0DFF818C1EC
:10182000ACF1300C614503D0DFF80CC1ACF1180C01
:10183000D1F800C02CF0010CC1F800C0DFF8E48042
:101840004FF0010C0168A8F11808414546D09142BB
:1018500044D0994242D0A14240D049453ED0714542
:101860003CD0B9423AD0334A1832914236D0324A4B
:10187000603A914232D0304A483A91422ED02E4AB4
:10188000303A91422AD02C4A183A914226D05945F2
:1018900024D0514522D0A94220D0B1421ED02A4A9C
:1018A00091421BD0284A1432914217D0264A28323E
:1018B000914213D0244A3C3291420FD0224A5032F6
:1018C00091420BD0204A6432914207D01E4A7832AE
:1018D000914203D01C4A8C32914218D1016E0A68A1
:1018E00022F480720A6090F85C20816D02F01F0281
:1018F0000CFA02F24A60D0E919124A60C16E31B1A5
:101900000A6822F480720A60D0E91C124A60002240
:10191000016D80F835C080F8342001B1884700207F
:10192000DCE600002800024058000240700002403F
:1019300088000240A0000240700402408804024077
:10194000A0040240B8040240085402582DE9FC5F8C
:101950000446F74E0020DFF8D88300904FF416526B
:10196000F44808F11808A56DDFF8C493DFF8C0A3A8
:10197000016809F1300920680AF1480AB1FBF2F167
:10198000B04201912F68D5F800C0DFF8ACB335D074
:101990004146884232D0484530D050452ED0584537
:1019A0002CD0E5491831884228D0E34930318842AB
:1019B00024D0E1494831884220D0E04988421DD0F6
:1019C000DE491831884219D0DC493031884215D0BF
:1019D000DA494831884211D0DFF860E30EF1600E39
:1019E00070450BD0D54A7832904207D0D34B903314
:1019F000984203D0D149A83188427DD194F85C2027
:101A0000082102F01F0201FA02F23A424AD0B04223
:101A100032D0404530D048452ED050452CD0584586
:101A20002AD0C54A1832904226D0C34A303290425A
:101A300022D0C14A483290421ED0C04A90421BD0A8
:101A4000BE4A1832904217D0BC4A3032904213D06E
:101A5000BA4A483290420FD0B84A603290420BD016
:101A6000B64A7832904207D0B44A9032904203D0BE
:101A7000B24AA832904203D1026802F0040202E0A6
:101A8000026802F008026AB1026822F004020260F1
:101A900094F85C0000F01F008140A960606D40F088
:101AA0000100606594F85C00012100F01F00814096
:101AB000394240D02068B04234D0404532D0484509
:101AC00030D050452ED058452CD09B4A18329042E9
:101AD00028D0994A3032904224D0974A48329042D6
:101AE00020D0964A90421DD0944A1832904219D084
:101AF000924A3032904200E0AFE113D08F4A483230
:101B000090420FD08D4A603290420BD08B4A78328F
:101B1000904207D0894A9032904203D0874AA83237
:101B200090427DD1406910F0800F04D0A960606DB3
:101B300040F00200606594F85C00042100F01F0092
:101B4000814039423ED02068B04232D0404530D04A
:101B500048452ED050452CD058452AD0764A1832C8
:101B6000904226D0744A3032904222D0724A483293
:101B700090421ED0714A90421BD0704A1832904257
:101B800017D06E4A3032904213D06C4A483290429D
:101B90000FD06A4A603290420BD0684A7832904245
:101BA00007D0664A9032904203D0644AA8329042ED
:101BB0004ED1006810F0020F04D0A960606D40F0B3
:101BC0000400606594F85C00102100F01F00814063
:101BD000394258D02068B04234D0404532D04845D0
:101BE00030D050452ED058452CD0534A1832904210
:101BF00028D0514A3032904224D04F4A4832904245
:101C000020D04E4A90421DD04C4A1832904219D0F2
:101C10004A4A3032904215D0484A4832904200E059
:101C200014E00FD0454A603290420BD0434A7832DC
:101C3000904207D0414A9032904203D03F4AA832A6
:101C4000904207D1006800F0080006E0006872E7E3
:101C50000068B7E7006800F00400A0B1A960206840
:101C60000168490304D50068000308D5A16C07E0AA
:101C70000168C90503D4016821F008010160216CE5
:101C800009B12046884794F85C00202100F01F002D
:101C90008140394279D02068B04232D0404530D0BE
:101CA00048452ED050452CD058452AD0224A1832CB
:101CB000904226D0204A3032904222D01E4A4832EA
:101CC00090421ED01D4A90421BD01C4A18329042AE
:101CD00017D01A4A3032904213D0184A48329042F4
:101CE0000FD0164A603290420BD0144A783290429C
:101CF00007D0124A9032904203D0104AA832904244
:101D000003D1006800F0100002E0006800F002005B
:101D1000B0B3A96094F835000428206801680FD09A
:101D200049037ED5006800032BD4616C2AE00000D3
:101D3000100002401800002470000240100402400D
:101D400021F0160101602068416921F080014161A4
:101D5000206C08B9A06C20B12068016821F008014E
:101D6000016094F85C303F21012003F01F03002242
:101D70009940A96084F8350084F83420216D65E02D
:101D800003E0E16B09B120468847606D00287DD0F3
:101D9000606DC00759D02068042184F83510B04226
:101DA0002BD0404529D0484527D0504525D058450F
:101DB00023D09D49884220D09B49183188421CD0AD
:101DC00099493031884218D09849884215D09749AE
:101DD0001831884211D09549303188420DD093494D
:101DE0004831884209D091496031884205D08F49F5
:101DF0007831884201D08D499031016821F001018C
:101E0000016020680099019A491C0091914202D812
:101E10000168C907F6D10068C00710D003200FE0A1
:101E2000FFE70168C905ACD403680121002223F053
:101E30001003036084F8351084F83420A1E70120F2
:101E400084F83500002084F83400E16C00291DD0AE
:101E500002B02046BDE8F05F0847754988421DD0B2
:101E600073491431884219D071492831884215D0FC
:101E70006F493C31884211D06D49503188420DD0B4
:101E80006B496431884209D0694900E084E07831C7
:101E9000884203D066498C3188427DD194F85C80B9
:101EA0000427016808F01F0807FA08F717EA0C0F63
:101EB000009746D04F0744D500980F04686003D5BB
:101EC000C8033CD4A16CC1E7880638D42068B0426E
:101ED0002DD055496039884229D0484527D05045F2
:101EE00025D0584523D05049884220D04E4918313A
:101EF00088421CD04C493031884218D04B49884226
:101F000015D04A491831884211D0484930318842A9
:101F10000DD046494831884209D0704507D09042DB
:101F200005D0984203D04149A831884203D10168C5
:101F300021F0080102E0016821F004010160216C38
:101F400084E7022707FA08F717EA0C0F00974ED02C
:101F50008F074CD500980F04686003D5C80344D49C
:101F6000616C73E7880640D42068B0422FD02E49B8
:101F7000603988422BD0484529D0504527D0584554
:101F800025D02949884222D02749183188421ED0BD
:101F900025493031884200E044E018D02349884286
:101FA00015D022491831884211D020493031884259
:101FB0000DD01E494831884209D0704507D0904263
:101FC00005D0984203D01949A831884203D101684D
:101FD00021F0140102E0016821F00A0101600121F1
:101FE00084F83510002084F83400E16B2EE70822D5
:101FF00002FA08F212EA0C0F14D0090712D5016890
:1020000021F00E01016094F85C100120002201F023
:102010001F0100FA01F16960606584F8350084F8F9
:10202000342012E7BDE8FC9F880002401004024003
:10203000085402582DE9F05F044600F04BFC002CD8
:1020400007467DD0E34E022120684FF00308DFF8F9
:1020500088934FF00005DFF884A3B042DFF880B327
:1020600034D0DC4A1832904230D048452ED050450A
:102070002CD058452AD0DA4A1832904226D0D84A75
:102080003032904222D0D64A483290421ED0D54AB1
:1020900090421BD0D34A1832904217D0D14A3032E6
:1020A000904213D0CF4A483290420FD0CD4A60328E
:1020B00090420BD0CB4A7832904207D0C94A903236
:1020C000904203D0C74AA83290427DD184F835109F
:1020D000B04284F834502ED0BE49183188422AD0FC
:1020E000484528D0504526D0584524D0BC49183101
:1020F000884220D0BA49303188421CD0B849483192
:10210000884218D0B749884215D0B649183188425C
:1021100011D0B449303188420DD0B249483188429B
:1021200009D0B0496031884205D0AE497831884243
:1021300001D0AC499031016821F00101016008E053
:1021400027E100BF00F0C6FBC01B052801D92021F4
:102150001CE120680068C007F4D104F10800216880
:10216000D4E9053C8E4685C809681043D4E90728A0
:102170001F43636A38439C4F40EA0C0010433940C8
:1021800040EA0800042B40EA010003D1D4E90B1215
:1021900011430843954909686FF30F01B1F1005FDE
:1021A0000FD36168A1F12902052A08D9163A032A3A
:1021B00005D9083A012A02D94F39032901D840F438
:1021C0008010CEF8000000E023E02068676A4069D4
:1021D000042F20F0070047EA00070DD1D4E90A01D7
:1021E000074349B12046FEF707FB28B14020606550
:1021F000012184F83510CCE0206847612046FEF7C5
:1022000019FA94F85C203F2102F01F02914081608E
:1022100054E0774A90421BD0754B1433984217D044
:10222000734B2833984213D0714B3C3398420FD0F4
:102230006F4B503398420BD06D4B6433984207D0AC
:102240006B4B7833984203D0694B8C3398427DD1E5
:1022500084F8351084F83450664B0168A26801EAAE
:10226000030E402A73D0802A72D00022D4E903786A
:10227000D4E9053142EAD70242EAD8085C4AD4E9F7
:10228000077C48EAD30848EAD10141EAD701524223
:1022900041EA1C11142341EA0E0101602068104438
:1022A000B0FBF3F08000E0652046FEF7C3F994F838
:1022B0005C20012102F01F02914041602068B04281
:1022C00057D044491831884253D0484551D05045E1
:1022D0004FD058454DD042491831884249D04049E5
:1022E0003031884245D03E494831884241D03D494D
:1022F00088423ED03B49183188423AD03949303182
:10230000884236D037494831884232D03549603129
:1023100088422ED03349783188422AD031499031D1
:10232000884226D02F49A831884222D0304988429D
:102330001FD02F49143188421BD02D4928318842A3
:1023400017D02B493C31884213D002E01DE017E042
:1023500018E02749503188420BD025496431884222
:1023600007D023497831884203D021498C318842F3
:1023700029D12046FEF7B8F9A06880280CD00CE0DF
:10238000102273E74FF4804270E74021616584F8C2
:1023900035800120BDE8F09F6560216E20790860DE
:1023A000D4E9190141606068401E072808D820461A
:1023B000FEF7E8F9E06E0560D4E91C01416002E037
:1023C000E566256765670120656584F835000020AE
:1023D000E0E70000100002404000024058000240C8
:1023E00070000240100402403F8010FE0010005CAC
:1023F000085402580F00FEFF70B5044600F06AFA58
:102400000546601C02D004480078044400F062FADB
:10241000401BA042FAD370BD0C000024F0B587B079
:1024200014216846FDF7ACFF2B480168002951D103
:10243000012101602948016841F480510160006870
:1024400002240027694600F4805005904FF68370FF
:102450000C258DE8910003262148CDE9036500F0A5
:1024600017F948F2371069468DE891001D48CDE90B
:10247000036500F00DF94CF2037069468DE8910098
:102480001948CDE9036500F003F94FF63F006946AE
:102490008DE891001548CDE9036500F0F9F8CDE924
:1024A0000054029769461248CDE9036500F0F0F840
:1024B00020206946CDE900040E48CDE90246049586
:1024C00000F0E6F800223020114600F085FE3020B2
:1024D00000F074FE07B0F0BD00000024D4440258A0
:1024E0000010025800180258000C0258001402583C
:1024F00000080258001C02582DE9F04F4F4D0022F1
:102500004FF0010A4FF00F0B92E000BF0AFA02F9F8
:1025100019EA01037ED022F0030606F1B0469407C3
:10252000D6F808C4270FDFF818810BFA07FE4045DC
:102530000EEA0C0402D14FF0000C40E0DFF804C1B9
:10254000604502D14FF0010C39E0DFF8FCC0604576
:1025500002D14FF0020C32E0DFF8F0C0604502D14A
:102560004FF0030C2BE0DFF8E8C0604502D14FF0DC
:10257000040C24E0DFF8DCC0604502D14FF0050C0C
:102580001DE0DFF8D4C0604502D14FF0060C16E024
:10259000DFF8C8C0604502D14FF0070C0FE0DFF84C
:1025A000C0C0604502D14FF0080C08E0DFF8B4C0AD
:1025B000604502D14FF0090C01E04FF00A0C0CFA13
:1025C00007FCA44513D12C689C432C606F684FF026
:1025D000B0449F436F6067689F43676027689F436D
:1025E0002760D6F8084424EA0E04C6F808440768B1
:1025F0000323D4084FEA42084FEA427C03FA08F367
:102600004FEADC6C1F4307600BFA0CF600EB840406
:10261000276A00E00BE0B7432762C4689C43C460AC
:10262000446824EA0904446084689C438460521C22
:1026300031FA02F37FF46AAFBDE8F08F80000058F2
:10264000000002580004025800080258000C02580A
:10265000001002580014025800180258001C0258BA
:102660000020025800240258102802D101490120FC
:1026700008707047600000244FF0B04110B5D1F8E9
:102680008820024203D0C1F88800FFF7EDFF10BD9B
:102690002DE9F84F03247D4D00234FF001094FF041
:1026A000B04B4FF00F0AE9E009FA03F73A4076D051
:1026B0000E7906F00306012E01D0022E18D1D0F8B3
:1026C00008C04FEA430ECE6804FA0EF82CEA080C54
:1026D00006FA0EF646EA0C068660D0F804C00E79BB
:1026E0002CEA070CC6F300169E4046EA0C0646602C
:1026F0000E79F643B6070BD0C6684FEA43088F68D9
:1027000004FA08FC26EA0C0607FA08F73743C76004
:102710000E7906F00306022E12D1DE080F694FEA89
:10272000437C00EB8606B646366A4FEADC6C0AFA52
:102730000CF807FA0CF726EA08063743CEF82070A3
:102740000F7906684FEA430807F0030704FA08FC0C
:1027500007FA08F726EA0C06374307604E6816F4B6
:10276000403F1CD04A4E376847F002073760366852
:102770009F0706F00206009623F0030606F1B04616
:10278000B6463F0FD6F80864DFF808810AFA07FC5E
:10279000404526EA0C0603D14FF0000C41E06CE006
:1027A000DFF8F4C0604502D14FF0010C39E0DFF8EA
:1027B000ECC0604502D14FF0020C32E0DFF8E0C01F
:1027C000604502D14FF0030C2BE0DFF8D8C0604524
:1027D00002D14FF0040C24E0DFF8CCC0604502D1F8
:1027E0004FF0050C1DE0DFF8C4C0604502D14FF08A
:1027F000060C16E0DFF8B8C0604502D14FF0070CB8
:102800000FE0DFF8B0C0604502D14FF0080C08E0DF
:10281000DFF8A4C0604502D14FF0090C01E04FF091
:102820000A0C0CFA07FC4CEA060CCEF808C44F68F8
:10283000DBF80060FF0226EA020600D516435F4679
:10284000CBF80060D1F804C0DBF804605FEA8C2CA0
:1028500026EA020600D516437E606E684F6826EAB7
:102860000206BF0300D516436E602E684F6826EA45
:102870000206FF0300D516432E605B1C0A6832FA7D
:1028800003F67FF411AFBDE8F88F00008000005818
:10289000F44402580000025800040258000802588C
:1028A000000C025800100258001402580018025878
:1028B000001C025800200258002402580AB181610D
:1028C00070470904FBE7000001480068000C7047EE
:1028D0000010005C01488068704700000C00002474
:1028E00030B590F84120202A24D190F84020012AC8
:1028F00020D0012380F84030242280F8412020237A
:1029000000240268156825F0010515600268156845
:1029100025F480551560026815680D43156001683F
:102920000A6842F001020A6080F8413080F84040B5
:10293000002030BD022030BD30B590F84120202A63
:1029400022D190F84020012A1ED0012380F8403087
:10295000242280F84120202400250268136823F0F7
:10296000010313600268136823F4706343EA0121D2
:10297000116001680A6842F001020A6080F8414073
:1029800080F84050002030BD022030BD10B504005A
:1029900014D0242084F841002068016821F001014E
:1029A0000160204600F0CCF90020606484F841000A
:1029B000206384F8420084F8400010BD012010BD5F
:1029C000406C704790F841007047000070B50400FB
:1029D00004D094F84100002510B106E0012070BD3C
:1029E000204684F8405000F0ACF9242084F84100DF
:1029F0002068016821F001010160D4E9001020F095
:102A0000706008612068816821F400418160E0689D
:102A100021680128A06806D040F404408860E0687E
:102A2000022803D006E040F40040F7E721684FF4A5
:102A30000060486020212068114A436813434360C6
:102A40002068C26822F40042C26054F8106B0DCCBA
:102A5000104340EA0320F06054F81C3CD4E9000223
:102A60001043186054F81C0D026842F00102026025
:102A7000656484F84110256384F84250002070BDDD
:102A8000008000022DE9FF4F83B0044690F841001A
:102A90009A469346DDE91087DDF84890202874D1E6
:102AA0005FEA080014D09FB194F8400001286CD070
:102AB000012084F84000FFF70DFF0122064619238C
:102AC0000090D103204603F047FB002871D103E0BA
:102AD0004FF4007060646CE00025C4F8248022216B
:102AE00084F84110402084F84200656467855346AD
:102AF00065635A4604992046CDE9009603F0B0FA82
:102B000010B184F8405054E0618DFF2734484FF0F5
:102B10008078FF294FF0007A04D927853A4643464A
:102B2000009005E0618D53462185009094F828209F
:102B30002046049903F0F8FA00224B46042120466F
:102B4000009603F009FBA0BB2068616A406A087028
:102B5000606A401C6062208D401E81B22185608DBC
:102B6000401E6085608DD8B1D1B900224B468021CE
:102B70002046009603F0F0FAD8B9608DFF2805D9F9
:102B800027853A464346009506E026E0608D534689
:102B90002085009594F828202046049903F0C4FA73
:102BA000608D0028C8D132464946204603F00BFB11
:102BB00018B1012007B0BDE8F08F21682020094A34
:102BC000C86121684B6813404B6084F8410084F869
:102BD0004250002084F84050ECE70220EAE7000071
:102BE0000024008000E800FE2DE9FF4F83B004467A
:102BF00090F841009A469346DDE91087DDF8489049
:102C0000202871D15FEA080014D09FB194F84000E9
:102C1000012869D0012084F84000FFF75BFE012203
:102C2000064619230090D103204603F095FA0028A8
:102C30006ED103E04FF40070606469E00025C4F8D1
:102C40002480212184F84110402084F842006564EA
:102C50006785534665635A4604992046CDE9009638
:102C600003F030FA10B184F8405051E0608DFF2736
:102C70004FF08078FF284FF0007A04D927853A4634
:102C80004346009505E0608D53462085009594F8F5
:102C900028202046049903F047FA32464946204648
:102CA00003F0BDFAA0BB606A216800788862606AA0
:102CB000401C6062608D401E6085208D401E80B289
:102CC0002085618DD9B1D0B900224B4680212046A4
:102CD000009603F041FAD8B9608DFF2805D9278501
:102CE0003A464346009506E026E0608D534620852F
:102CF000009594F828202046049903F015FA608D79
:102D00000028CAD132464946204603F05CFA18B181
:102D1000012007B0BDE8F08F20682021074AC1617B
:102D2000206843681340436084F8411084F842509F
:102D3000002084F84050ECE70220EAE700E800FEBB
:102D4000704770470248816802781144816070477B
:102D50000C000024032010B500F05EFA01F040FCE6
:102D60000F4A104914681368C4F3032203F00F03D9
:102D70008A5CC95C02F01F0201F01F01D0400A4AC0
:102D800020FA01F11160094908600F2000F010F8E5
:102D900008B1012010BD00F003FA002010BD0000B2
:102DA0001844025834A100081C0000241800002414
:102DB00070B50D4D04462878A0B14FF47A71B1FB7F
:102DC000F0F00A490968B1FBF0F002F0C3F848B925
:102DD000102C07D200222146501E00F0FDF90020E1
:102DE0006C6070BD012070BD0C0000241800002430
:102DF0002DE9F041044690F8A00016460F46012840
:102E00001DD0012584F8A050022084F8A10006EB13
:102E1000860000EBC600342204EB80003830FDF75A
:102E200088FA32463946204603F04AFA21680020E3
:102E30004D6284F8A15084F8A000BDE8F081022022
:102E4000FBE770472DE9F0410446006800274FF08A
:102E50000408856B466B690715D5710713D5426B5E
:102E600022F0040242632068C0F83C80D4F8A40039
:102E700040F00100C4F8A40084F8A180204684F842
:102E8000A070FFF7DEFFA80716D5B00714D520689D
:102E90000222436B23F0020343632068C263D4F829
:102EA000A40040F00200C4F8A40084F8A1802046E9
:102EB00084F8A070FFF7C5FF05EA06004FF001088F
:102EC000C0070ED021684A6B22F001024A632168D4
:102ED000C1F83C8084F8A180204684F8A07000F0FE
:102EE00091F8280710D530070ED520680822436BCB
:102EF00023F0080343632068C26384F8A18020465E
:102F000084F8A07000F0FCF8BDE8F0812DE9F041F4
:102F1000040004D094F8A100002518B107E00120B6
:102F2000BDE8F081204684F8A05000F06DF83448E8
:102F3000022184F8A110012202CC8B6923F0704396
:102F40008B6194E84A001943E3681E4354F8043D3A
:102F500031439E693143996121688B6803408B60DE
:102F60002168A68AA7698B683B4343EA06438B60C6
:102F70002168CB680340CB602168A38B276ACE68A9
:102F80003E4346EA0346CE6021680B6903400B616D
:102F90002368A68CA76A1969394341EA0641196179
:102FA00021684B6903404B612068A38D266B416902
:102FB000314341EA03414161236894F8351094F8A4
:102FC0003600DE6A000406F07F46DE62236840EACF
:102FD000012094F83460D96A31430143D9622068F2
:102FE000416B41F0060141632068816941F00101B4
:102FF0008161C4F8A45084F8A120002090E700006B
:1030000000F800F0704700002DE9F04186B004465A
:1030100014216846FDF7B4F934492068884262D12A
:103020003348016841F008010160006800F00800C1
:1030300005902F48001F016841F48061016001681C
:1030400001F480610591016841F40071016001683B
:1030500001F400710591016841F48071016000681C
:1030600002250327694600F480700590FF200024A4
:10307000CDE900051F480E26CDE902470496FFF76B
:1030800007FBDFF874804FF6FE70CDE90005CDE94F
:103090000247694640460496FFF7FAFA4FF470403B
:1030A0006946CDE900051548CDE902470496FFF7CA
:1030B000EFFA01200090CDE90154CDE903466946BD
:1030C0004046FFF7E5FA00220C21582000F084F872
:1030D000582000F073F800225920114600F07CF8C7
:1030E000592000F06BF806B0BDE8F08100100050E8
:1030F000E4440258002802580024025800200258D4
:1031000070470000F0B5154C4378211D0A1D23605F
:103110000378F3B143680B60057BC67A817A437B01
:103120002D07847B45EA0665C77B90F809C0067ABF
:1031300090F800E045EAC14040EA834040EA44405C
:1031400040EA074040EA0C2040EA460040EA0E0010
:1031500001E0002008601060F0BD000098ED00E084
:10316000BFF35F8F044800210368034A23F48033D0
:10317000036070321160704724ED00E0074A40F0B0
:103180000100064970321060086840F48030086021
:10319000BFF34F8FBFF36F8F7047000024ED00E047
:1031A000054808B5016841F002010160006800F0BF
:1031B0000200009008BD0000F4440258002809DB1A
:1031C000410900F01F028900012001F1E021904037
:1031D000C1F80001704700000E4BF0B41B680D46AB
:1031E000C3F30223C3F10706042E00D90426191DD8
:1031F000072901D2002300E0DB1E012404FA06F1B6
:103200009C40491E2940641E994014402143F0BC53
:1032100005F0A6B80CED00E0064900F0070210B575
:103220004FF6FF040868044B204040EA0220184390
:10323000086010BD0CED00E00000FA05134970B500
:103240000A68D243520705D5096801F00701814297
:1032500013D118E00A6822F0070202430A60FFF760
:1032600039FB0A4D4FF47A760446083D07E000BF6B
:10327000FFF730FB001BB04201D9012070BD286868
:10328000C0438004F4D4002070BD00000C480258F4
:1032900010B501F05FF905490968054AC1F302114B
:1032A000515C01F01F01C84010BD000020440258CD
:1032B00034A100084A4930B5494C0B1D0A680C344A
:1032C00009681D68246802F0030305F00102C1F3D8
:1032D0000511C4F3CC04002914FB02F200EE102AFD
:1032E000F8EE400A76D0414A9FED3E1ADFED3E1AD5
:1032F000B7EE000A23B1012B5AD0022B18D15CE0A3
:10330000374C283C23689B0612D5394B246801EEC4
:10331000901A1168C4F3C104F8EE612AE34001EE8B
:10332000903AC1F30801F8EE611A81EEA22A07E093
:1033300002EE101A1168F8EE422A81EEA22A45E048
:1033400001EE901A1168F8EE611A40EE811A71EEE2
:10335000800A62EE200AC1F3462101EE101AB8EE8F
:10336000411A31EE001AC0EE811ABCEEE11A80ED6E
:10337000001A1168C1F3064101EE101AB8EE411AA5
:1033800031EE001AC0EE811ABCEEE11A80ED011A8E
:103390001168C1F3066101EE101AB8EE411A31EE60
:1033A000000A80EE801ABCEEC10A80ED020A30BD30
:1033B00001EE901ADFED0F2A03E001EE901ADFED27
:1033C0000E2A1168F8EE611A82EEA12AC1F30801F3
:1033D000B6E7FFE7002101604160816030BD000079
:1033E00028440258000000390024744C304402582C
:1033F0000090D0030024744A20BCBE4B494930B52C
:10340000484C0B1D0A68143409681D68246802F0D2
:103410000303C5F30012C1F30531C4F3CC04002942
:1034200014FB02F200EE102AF8EE400A75D03F4A73
:103430009FED3D1AB7EE000A6BB1DFED3D1A012B8F
:1034400001D0022B64D002EE101A1168F8EE422A65
:1034500081EEA22A21E0334C283C23689B0612D53A
:10346000344B246801EE901A1168C4F3C104F8EEDD
:10347000612AE34001EE903AC1F30801F8EE611AC7
:1034800081EEA22A0BE001EE901ADFED2B2A00BF9D
:10349000F8EE611A116882EEA12AC1F3080101EE6B
:1034A000901A1168F8EE611A40EE811A71EE800AE6
:1034B00062EE200AC1F3462101EE101AB8EE411A5D
:1034C00031EE001AC0EE811ABCEEE11A80ED001A4E
:1034D0001168C1F3064101EE101AB8EE411A31EE3F
:1034E000001AC0EE811ABCEEE11A80ED011A1168D3
:1034F000C1F3066101EE101AB8EE411A31EE000A6E
:1035000080EE801ABCEEC10A80ED020A30BD04E0F4
:1035100001EE901ADFED092ABAE70021016041604F
:103520008160F3E72844025800000039384402580B
:103530000024744A0090D0030024744C20BCBE4B7D
:10354000494930B5484C0B1D0A681C3409681D6890
:10355000246802F00303C5F30022C1F30551C4F34C
:10356000CC04002914FB02F200EE102AF8EE400A07
:1035700075D03F4A9FED3D1AB7EE000A6BB1DFED03
:103580003D1A012B01D0022B64D002EE101A1168F3
:10359000F8EE422A81EEA22A21E0334C283C23682F
:1035A0009B0612D5344B246801EE901A1168C4F3BF
:1035B000C104F8EE612AE34001EE903AC1F308013C
:1035C000F8EE611A81EEA22A0BE001EE901ADFED0F
:1035D0002B2A00BFF8EE611A116882EEA12AC1F30E
:1035E000080101EE901A1168F8EE611A40EE811A96
:1035F00071EE800A62EE200AC1F3462101EE101A34
:10360000B8EE411A31EE001AC0EE811ABCEEE11A92
:1036100080ED001A1168C1F3064101EE101AB8EEF0
:10362000411A31EE001AC0EE811ABCEEE11A80EDAB
:10363000011A1168C1F3066101EE101AB8EE411AC1
:1036400031EE000A80EE801ABCEEC10A80ED020A5B
:1036500030BD04E001EE901ADFED092ABAE700213F
:10366000016041608160F3E728440258000000399E
:10367000404402580024744A0090D0030024744C43
:1036800020BCBE4B2DE9F04FAC4A0546DFF8A8A29E
:1036900080F48070DFF8AC9289B01311AA4C084313
:1036A000A748AAF104064FF0805C4FF000582CD0D8
:1036B00085F400770F4357D0DFF87CB285F480673C
:1036C0000F430BF1080B61D085F400670F4374D0F2
:1036D00085F480570F436ED085F400570F434FF4A5
:1036E00080394FF4003E67D085F400270F4371D036
:1036F00085F480370F436ED085F480460E436BD03F
:1037000085F400420A4368D02AE0DAF8001001F09C
:103710000701052924D2DFE801F075BC7D25B10041
:1037200006A8FFF7C7FD079809B0BDE8F08F684607
:10373000FFF764FE0098F7E703A8FFF701FF03987F
:10374000F2E72068C0F3C10022FA00F0ECE722683B
:10375000D20571D561456FD11846E5E74145E3D003
:103760000020E1E74846DFE7DAF8001001F4E071F5
:1037700080294FD004DC002944D04029F0D188E0D2
:10378000C029EFD0B1F5807FEAD177E0DBF80010F7
:1037900001F46001B1F5800F3CD004DC91B3B1F5C8
:1037A000001FDDD175E0B1F5C00FDBD0B1F5000F22
:1037B000D6D163E001E018E030E0DBF8001001F062
:1037C000E061B1F1007F25D008DCD9B1B1F1807F93
:1037D000C6D15EE049E06CE079E09CE0B1F1407F69
:1037E000C0D0B1F1806FBBD148E0DAF8001001F42D
:1037F000E041B1F5005F0DD005DC19B1B1F5805F96
:10380000AED146E094E0B1F5405FABD0B1F5804F6A
:10381000A6D133E020688000A2D58DE7DAF8001049
:1038200001F4E021B1F5403F6CD006DC61B14945BF
:103830007AD0714594D157E037E0B1F5802F65D04B
:10384000B1F5A02F8CD10CE000F0A6FE6CE7684625
:10385000FFF7D4FD019867E703A8FFF771FE04980E
:1038600062E721688903F1D47AE7DBF8001011F4EC
:1038700040310ED0494510D07145F5D131682568E9
:1038800001F040516D077FF562AF00297FF45FAF13
:1038900057E720680001E7D549E720688000E3D5B5
:1038A00003A8FFF74DFE05983EE722689203DBD59B
:1038B00054E7306810F480303AD04845D4D12068BD
:1038C0000001D1D56846FFF799FD02982CE7DBF897
:1038D000001001F0E041B1F1405F13D008DC71B19C
:1038E000614521D04145BFD120688000B4D437E77D
:1038F000B1F1804F0AD0B1F1A04FB2D030E7FFF75D
:10390000C7FC11E720684007AED51AE72068C0055C
:10391000AAD521E708E0DAF8001011F04051A0D054
:10392000614505D041459FD1206800018FD417E73C
:103930002068800198D5F3E6504402580090D003E7
:1039400040787D010080BB00004402582DE9FE4F05
:103950000546DFF8E48350F8081B0024F64FC943FE
:10396000019005F12800264608F12408009008017E
:103970001DD4A86E50B1B0F5801F0CD0B0F5001F5B
:103980000ED0B0F5401F1ED001240FE0386840F47F
:103990000030386017E00198022103F0E9F903E0F4
:1039A0000098022103F074FA04000CD026462888FF
:1039B000C043C00523D4A86D05281ED2DFE800F05F
:1039C0000C11161B1B00AA6ED8F8001021F4401130
:1039D0001143C8F80010EAE7386840F40030386056
:1039E00009E00198002103F0C3F903E000980021E9
:1039F00003F04EFA044674B100E0012426462888FC
:103A0000C043800528D4E86D80281ED00CDC90B11E
:103A100040280ED114E0AA6DD8F8001021F007015B
:103A20001143C8F80010EAE7C02813D0B0F5807F32
:103A300010D001240FE0386840F40030386009E00D
:103A40000198002103F094F903E00098002103F0AD
:103A50001FFA04469CB126462888DFF8DC92C04352
:103A600009F12C0940052CD4D5F8A800B0F5800F39
:103A700020D00DDCA0B1B0F5001F0FD115E0EA6D2C
:103A8000D8F8001021F4E0711143C8F80010E3E702
:103A9000B0F5C00F13D0B0F5000F10D001240FE027
:103AA000386840F40030386009E00198002103F0E4
:103AB0005FF903E00098002103F0EAF904467CB1C5
:103AC00026462888C04300052DD4D5F8AC00B0F1B7
:103AD000007F21D00EDCA8B1B0F1807F10D116E0BC
:103AE000D5F8A820D9F8001021F460011143C9F8D5
:103AF0000010E6E7B0F1407F13D0B0F1806F10D036
:103B000001240FE0386840F40030386009E0019883
:103B1000002103F02DF903E00098002103F0B8F92B
:103B2000044674B126462868C04380011FD4E86C5F
:103B3000D8B110280FD0202812D0302815D0012459
:103B400014E0D5F8AC20D9F8001021F0E061114361
:103B5000C9F80010E7E7386840F40030386004E046
:103B60000198022103F004F9044674B1264628881E
:103B7000C043C0042BD4286EB0F5005F20D00DDC0C
:103B8000A0B1B0F5805F0FD115E06B48EA6C203032
:103B9000016821F0300111430160E8E7B0F5405FB2
:103BA00013D0B0F5804F10D001240FE0386840F4F6
:103BB0000030386009E00198002103F0D9F803E0F3
:103BC0000098002103F064F904468CB12646288849
:103BD000C043800429D4686EB0F5403F23D010DC88
:103BE00008B3B0F5803F14D0B0F5003F0FD115E019
:103BF0002A6ED8F8001021F4E0411143C8F80010F3
:103C0000E5E7B0F5802F0ED0B0F5A02F0BD0012442
:103C10000AE00198012103F0ABF803E000980121CC
:103C200003F036F9044694B126462888C043400480
:103C30002AD4D5F8B000B0F1405F23D010DC08B32F
:103C4000B0F1805F14D0B0F1005F0FD115E06A6E63
:103C5000D8F8001021F4E0211143C8F80010E4E77F
:103C6000B0F1804F0ED0B0F1A04F0BD001240AE08C
:103C70000198012103F07CF803E00098012103F092
:103C800007F9044674B126462888C04300041FD4AF
:103C9000286FD8B1B0F1805F0ED0B0F1005F10D0C6
:103CA000012414E0D5F8B020D9F8001021F0E0414B
:103CB0001143C9F80010E7E7386840F40030386075
:103CC00004E00198012103F053F8044674B126463C
:103CD0002868C043C0011ED4A86CD0B101280ED002
:103CE000022811D0032814D0012413E02A6FD8F839
:103CF000001021F040511143C8F80010E8E738687F
:103D000040F40030386004E00198022103F030F8FC
:103D10000446ACB126462868DFF81CB0C043ABF1BE
:103D20001C0B400252D40548016841F480710160C7
:103D3000FEF7D0FD824611E02C440258004802589C
:103D4000FA48AA6C016821F0030111430160E2E71F
:103D5000FEF7C0FDA0EB0A00642835D8F4480068DF
:103D6000C005F5D58CBBDFF8C4A3B5F8B4100AF1D3
:103D7000240ADAF8000001F4407100F4407088422F
:103D800011D0DAF80010DAF8002021F4407142F482
:103D90008032CAF80020DAF8002022F48032CAF813
:103DA0000020CAF80010D5F8B400B0F5807F1AD111
:103DB000FEF790FD029012E0FEF78CFD0299411A89
:103DC00041F2883081420AD9032426462878DFF858
:103DD0005CA3C0430AF1080AC00721D03CE0DAF82E
:103DE00000008007E8D5D5F8B410C1F301200328FE
:103DF00058460DD0016821F47C510160B5F8B4201B
:103E0000DAF80010C2F30B021143CAF80010DDE724
:103E1000C84A036802EA111223F47C511143ECE70B
:103E2000E86F182816D005DCA0B1082808D01028A3
:103E300004D10AE020280DD028280BD001240AE064
:103E40000198012102F094FF03E00098012103F0A2
:103E50001FF8044664B126462878C04380071ED464
:103E6000A86F062819D2DFE800F0160C11161616F6
:103E7000EA6FDAF8001021F038011143CAF8001097
:103E8000EAE70198012102F073FF03E000980121A5
:103E900002F0FEFF04467CB100E0012426462878AB
:103EA000C04340071FD4D5F89400062819D2DFE894
:103EB00000F0160C11161616AA6FDAF8001021F091
:103EC00007011143CAF80010E9E70198012102F047
:103ED0004FFF03E00098012102F0DAFF0446A4B18D
:103EE00000E0012426462878C04380062BD4D5F86C
:103EF0009000B0F1405F24D011DC10B3B0F1805FCE
:103F000015D0B0F1005F10D116E0D5F89420D9F8A3
:103F1000001021F007011143C9F80010E3E7B0F1E8
:103F2000804F0ED0B0F1A04F0BD001240AE00198D1
:103F3000002102F01DFF03E00098022102F0A8FF1B
:103F4000044694B126462878C04340062BD4D5F8C1
:103F50009C00B0F5406F24D011DC10B3B0F5806F39
:103F600015D0B0F5006F10D116E0D5F89020DAF832
:103F7000001021F0E0411143CAF80010E3E7B0F56A
:103F8000805F0ED0B0F5A05F0BD001240AE001984D
:103F9000002102F0EDFE03E00098022102F078FF1C
:103FA000044694B126462878C04300062BD4D5F8A1
:103FB000A000B0F5C04F24D011DC10B3B0F5005F05
:103FC00015D0B0F5804F10D116E0D5F89C20D9F867
:103FD000001021F4E0511143C9F80010E3E7B0F5F7
:103FE000004F0ED0B0F5204F0BD001240AE001980D
:103FF000002102F0BDFE03E00098022102F048FF1C
:10400000044654B126462878C04300071ED4D5F88C
:104010008400B0F5805F0AD00FE0D5F8A020D9F871
:10402000001021F460411143C9F80010EBE700983B
:10403000022102F02DFF00B10126D5F88420DAF824
:10404000001021F440511143CAF800102878C043F1
:10405000C00613D4D5F89800B0F5807F05D100983C
:10406000022102F015FF00B10126D5F89820D9F8F9
:10407000001021F440711143C9F800102868C043B2
:10408000000316D4D5F8A40038B1B0F5803F09D0AC
:10409000B0F5003F0BD001240AE00198002102F0A6
:1040A00067FE03E00098022102F0F2FE04468CB1A4
:1040B00026462868C043400322D4D5F88800B0F5CE
:1040C000801F11D0B0F5001F13D0B0F5401F15D0E0
:1040D000012414E0D5F8A420D9F8001021F44031CF
:1040E0001143C9F80010E4E7386840F40030386044
:1040F00004E00098012102F0CBFE04465CB12646A4
:104100002868C043C00323D4286DA8B1B0F5803F10
:1041100017D001241BE0D5F88820DAF8001021F42C
:1041200040111143CAF80010EAE700004C4402585D
:1041300000480258CFFFFF00386840F40030386074
:1041400004E00198022102F013FE0446E4B1264681
:104150002868C043800005D40098022102F098FE30
:1041600000B101262868C04380031BD4D5F8800025
:10417000B0B1B0F5807F0FD0B0F5007F10D0B0F5B2
:10418000407F0DD001240CE05A482A6D016821F4CB
:10419000803111430160DBE7386840F4003038605B
:1041A000ECB326462868C043C00207D46A6FD8F82B
:1041B000001021F000411143C8F800102868C043E6
:1041C000C00008D4D5F8B820DBF8001021F48041F5
:1041D0001143CBF800102868C043800207D4EA6E70
:1041E000D8F8001021F080711143C8F80010286839
:1041F000C04340000CD4DBF8001021F40041CBF8A0
:104200000010DBF80010D5F8BC201143CBF80010EB
:104210002868C04308D437486A6D016800E018E098
:1042200021F04051114301602868C043000208D4C6
:10423000D5F88C20DAF8001021F440011143CAF8B7
:10424000001028790024C04300F0010020430AD068
:104250000FE0D5F88020DAF8001021F44071114306
:10426000CAF800109EE70198002102F081FD00B11C
:1042700006462879C04300F00200204305D101988A
:10428000012102F075FD00B106462879C04300F017
:104290000400204305D10198022102F069FD00B11C
:1042A00006462879C04300F00800204305D1009855
:1042B000002102F0EDFD00B106462879C04300F070
:1042C0001000204305D10098012102F0E1FD00B16A
:1042D00006462879C04300F02000044304D100982A
:1042E000022102F0D5FD00B916B10120BDE8FE8F14
:1042F0000020FBE74C4402582DE9F05F04000F4614
:104300007ED0DFF83882D8F8000000F00F00B84205
:104310000CD2D8F8001021F00F013943C8F8001072
:10432000D8F8000000F00F00B84269D12078844D21
:1043300040070AD52069296801F07001884204D934
:10434000296821F070010143296020787C4E361DD8
:1043500000070AD56069316801F07001884204D90C
:10436000316821F07001014331602078C0060AD520
:10437000A069316801F4E061884204D9316821F410
:10438000E061014331602078DFF8B4B180060BF1C1
:10439000080B0CD5E1695846DBF8002002F07002EA
:1043A000914204D9026822F070020A430260207828
:1043B00080070AD5E068296801F00F01884204D916
:1043C000296821F00F01014329602078C0073ED001
:1043D0005B49A2682868183920F47060104328608F
:1043E0006068022818D0032819D00968012819D05C
:1043F000490700294ADADFF848A1AAF1080A00E0D3
:1044000044E0DAF8002022F007020243CAF8002054
:10441000FEF760FA814612E009688903E9E7096856
:104420008901E6E7C905E4E7FEF754FAA0EB0901C4
:1044300041F28830814202D90320BDE8F09F6168D3
:10444000DAF8000000F03800B0EBC10FECD12078B2
:1044500080070AD5E068296801F00F01884204D27C
:10446000296821F00F0101432960D8F80010404667
:1044700001F00F01B9420BD9016821F00F01394356
:104480000160006800F00F00B84201D00120D4E7BD
:10449000207840070AD52069296801F07001884218
:1044A00004D2296821F070010143296020780007B7
:1044B0000AD56069316801F07001884204D2316820
:1044C00021F07001014331602078C0060AD5A0694F
:1044D000316801F4E061884204D2316821F4E0617E
:1044E00001433160207880060CD5E1695846DBF83D
:1044F000002002F07002914204D2026822F07002A1
:104500000A43026000F06CF80E492A682B68C2F377
:10451000032203F00F038A5CC95C02F01F0201F062
:104520001F01D040084A20FA01F1116007490860D4
:1045300007480068BDE8F05FFEF73ABC0020005273
:104540001844025834A100081C000024180000245C
:104550001000002430B500F043F80B4A0B490C4B17
:1045600015681468C5F3032204F00F048A5C095D22
:1045700002F01F0201F01F01D040064A20FA01F1AB
:1045800019601060084630BD1844025834A1000874
:104590001C0000241800002400B5FFF7DBFF0549CC
:1045A0000968054AC1F30211515C01F01F01C840BE
:1045B00000BD00001C44025834A1000800B5FFF7FC
:1045C000C9FF05490968054AC1F30221515C01F0A0
:1045D0001F01C84000BD00001C44025834A100085F
:1045E000454970B545480968434B103B11F0380206
:1045F00008D00111082A03D0102A0BD0182A0BD09A
:10460000084670BD19688906FBD51968C1F3C10158
:10461000C84070BD3A4870BD3749374D18310C1D40
:1046200024350A68096826682D6802F0030406F03C
:104630000102C1F30511C5F3CC0515FB02F200EE32
:10464000102AB8EE400AE9B32F4ADFED2E0AB7EE82
:10465000001A6CB1DFED2D1A012C01D0022C43D0D1
:1046600002EE101A1068F8EE422A81EEA22A1EE02D
:104670001C68A40611D51B6801EE901A1168C3F3DB
:10468000C103F8EE612AD84001EE900AC1F3080098
:10469000F8EE611A81EEA22A0BE001EE901ADFED2E
:1046A0001C2A00BFF8EE611A106882EEA12AC0F33E
:1046B000080001EE900AF8EE611A40EE201A31EE81
:1046C000810A00E015E022EE000A1068C0F34620DF
:1046D000401C00EE900AF8EE600A80EE201ABCEE54
:1046E000C10A10EE100A70BD01EE901ADFED092A22
:1046F000D8E7002070BD0000104402580090D0039D
:1047000040787D0100000039304402580024744A8A
:104710000024744C20BCBE4B2DE9F05F04007DD01A
:10472000FF4F2078FE4D1837DFF8F493103DC00797
:1047300048D0D9F80000396800F03800102815D0AA
:10474000182803D101F0030002280FD06068B0F5EB
:10475000803F12D010B1B0F5A02F18D0286820F4F7
:1047600080302860286820F4802009E028688003D1
:1047700028D560680028D2D024E0286840F4803032
:104780002860606888B1FEF7A5F8064609E0286849
:1047900040F480202860F0E7FEF79CF8801B642836
:1047A0006FD828688003F7D50CE0FEF793F806462B
:1047B00005E000BFFEF78EF8801B6428F0D828685B
:1047C0008003F7D4207841F20308D54E0C3E8007D1
:1047D00069D5D9F80000396810F038000ED01828D3
:1047E00001D188070AD0E06890B3296821F0190147
:1047F00001432960FEF76EF8824631E028684007E1
:1048000002D5E06800288AD0E168286820F0190005
:1048100008432860FEF75EF8824607E0DFE000BF4D
:10482000FEF758F8A0EB0A000228B9D8286840071C
:10483000F6D500BFFEF748F840451BD82069402850
:1048400012D0316821F47C3141EA003030602AE036
:1048500018E000BFFEF73EF8A0EB0A0002289FD840
:1048600028684007F6D5E5E7306820F47C3040F44E
:104870000030EBE7207C316821F0FE4141EA006026
:10488000E4E70DE1286820F001002860FEF722F837
:10489000824605E0FEF71EF8A0EB0A0002288DD83C
:1048A00028684007F6D42078C0065DD5D9F8000006
:1048B000DFF86CB2396800F03800ABF1040B08285F
:1048C00010D0182803D101F0030001280AD0E069B4
:1048D0000028286838D040F080002860FDF7FAFFF3
:1048E000824623E02868C00523D5E069802876D178
:1048F0001FE0206A202821D0316821F0F84141EAE8
:104900008060306030E000BF94F82010DBF80020B9
:1049100022F07C5242EA0161CBF8001024E000BF93
:10492000FDF7D8FFA0EB0A00022898D82868C00538
:10493000F6D5FDF7C9FF4045E6D8DAE7306820F044
:10494000F84040F08040DCE720F080002860FDF770
:10495000C1FF064605E000BFFDF7BCFF801B022833
:104960009DD82868C005F7D42078000729D56C4861
:104970006169643000298046016811D041F001016D
:104980000160FDF7A7FF064605E000BFFDF7A2FFA7
:10499000801B0228C9D8D8F800008007F6D510E09F
:1049A00021F001010160FDF795FF064605E000BF1B
:1049B000FDF790FF801B022872D8D8F8000080070E
:1049C000F6D42078800623D5A0690028286810D066
:1049D00040F480502860FDF77DFF064605E036E193
:1049E000FDF778FF801B02285AD828688004F7D585
:1049F0000EE020F480502860FDF76CFF064604E0CE
:104A0000FDF768FF801B02284AD828688004F7D485
:104A1000207840074FD5DFF80C81D8F8001041F41A
:104A20008071C8F80010FDF755FF064605E000BF8D
:104A3000FDF750FF801B642832D8D8F80000C0056D
:104A4000F6D5374EA068603601280AD008B105288F
:104A500013D0306820F001003060306820F004008E
:104A600002E0306840F001003060A06841F2883A0E
:104A700090B1FDF72FFF80460AE0306840F0040057
:104A80003060EEE7FDF726FFA0EB0801514507D89F
:104A900030688007F6D50EE0FDF71CFF804607E082
:104AA00084E000BFFDF716FFA0EB080151457DD85B
:104AB00030688007F6D4606AB0B3DFF86480D9F854
:104AC000001008F120084FF6F87B08F10409C1F343
:104AD000C2010329A8F1040A69D00228286820F03D
:104AE0008070286003D0FDF7F5FE044684E0FDF7F2
:104AF000F1FE064605E000BFFDF7ECFE801B022834
:104B000077D828688001F7D4E26A40F2F331386838
:104B100054F8283F884340EA02101843386004E004
:104B20001044025800480258B5E0217B43462289D0
:104B30004FF4FE0C208A4FF0FE474902267D521E9C
:104B4000401EA1F50071C2F308088AB2761E0CEA75
:104B5000004042EA08020243504607EA06610A435F
:104B60001A60DAF8002022F00102CAF80020D9F811
:104B70000020266A22EA0B0242EAC602C9F8002097
:104B8000DAF80010A26921F00C011143CAF80010F4
:104B90000168E26921F0020111430160016841F4FA
:104BA00080310160016841F4003101E021E027E03B
:104BB0000160016841F480210160016841F0010158
:104BC0000160286840F080702860FDF783FE04468D
:104BD00005E000BFFDF77EFE001B022809D828680B
:104BE0008001F7D557E000BFFDF774FE001B0228D7
:104BF00002D90320BDE8F09F28688001F4D44AE080
:104C000039680128D8F8000021D0A26A01F0030316
:104C100093421CD1E26AC1F305118A4217D1216B7C
:104C2000C0F30802491E8A4211D1616BC0F34622CB
:104C3000491E91420BD1A16BC0F30642491E91421D
:104C400005D1E16BC0F30660491E814201D001200D
:104C5000D0E7A16C4E46D9F80000C0F3CC008142E9
:104C600019D0DAF80000554620F00100CAF800001B
:104C7000FDF730FE4FEA0007FDF72CFEB842FBD0EF
:104C8000A26C306820EA0B0040EAC200306028685D
:104C900040F0010028600020ACE710B50446006831
:104CA0008069C00707D0204600F030F820684169CD
:104CB00041F00101416110BD70B504000D4603D003
:104CC00094F82C0010B107E0012070BD002084F89A
:104CD0002D00204600F018F8022084F82C002068EF
:104CE000211DFBF7BFFDD4E900022946FBF7F0FDCB
:104CF00004480121026842F00042026084F82C104E
:104D0000002070BD00400052FDF788BB70470000D6
:104D10002DE9F047040029D0594A4FF000092068D6
:104D2000584B594D9042C4F8289006D0984204D070
:104D3000A84202D0E1680F2918D8E1684FF0010AB3
:104D4000E76B0831C9080AEB57167143904205D04A
:104D5000984203D0A84201D0082907D8904203D036
:104D6000984201D0A84204D1102902D90120BDE8FF
:104D7000F08794F8810020B9204684F8809000F0F4
:104D800085F8022084F881002068016821F0010183
:104D900001602068A1698268B1F1806F02F4F811A6
:104DA00010D16268B2F5800F01D01AB10AE0A26B8F
:104DB00022B107E0A26BB2F1805F03D1026842F436
:104DC000805202606068400209D5E068072806D377
:104DD0002068236D026822F480721A4303E0206881
:104DE000026822F480720260A66AE069E26B2568BC
:104DF0003043E3680A4310431843A860D4E90D0226
:104E0000D4E90581636A25691843D4F820C00A43B0
:104E1000266810432843A56DD4E90172D4E9123104
:104E200040EA080040EA0C003843084310431843A6
:104E30002843F060606868B92068816821F4C05137
:104E400041F4006181602068816821F4C06141F40F
:104E5000806181602068016D21F001010165606859
:104E6000400206D52068626DC16821F000411143FF
:104E7000C160C4F8849084F881A0002077E7000026
:104E80000030014000380040003C00402DE9F04176
:104E900086B0044614216846FBF772FA244920685C
:104EA000884242D12348016841F480510160006882
:104EB00000F4805005901F481038016841F002014D
:104EC0000160016801F002010591016841F04001B3
:104ED0000160016801F040010591016841F00101A4
:104EE00001600068052701AA4FF0200800F00100CA
:104EF000CDF80080022469460025CDE90470032620
:104F00000D4882E87000FDF7C3FB200269468DE87A
:104F1000F1000A48FDF7BCFB01AACDF80080084863
:104F2000694682E8F000FDF7B3FB06B0BDE8F0810A
:104F300000300140F04402580004025800180258A2
:104F400000000258024A136883430B431360704702
:104F500004040058401EB0F1807F10B501D3012039
:104F600010BD4FF0E02460610F21601703F0F8F9E5
:104F70000020A0610721216110BD70477047704774
:104F8000F0B590F83C20012A3BD01F4E012480F858
:104F90003C40022280F83D2002681C4D5368B2421A
:104FA000D2F808C001D0AA4203D14F6823F470039D
:104FB0003B430F6823F070031F4357600268B242FF
:104FC00013D0B2F1804F10D0114B9A420DD0114B3B
:104FD0009A420AD0104B9A4207D0AA4205D00F4BF2
:104FE0009A4202D00E4B9A4204D189682CF0800379
:104FF00019439160002180F83D4080F83C1008463C
:10500000F0BD0220F0BD000000000140000401409E
:105010000004004000080040000C00400018004060
:105020000040014010B5040003D094F83D0010B1D9
:1050300007E0012010BD002084F83C00204600F06D
:1050400023F8022084F83D002068211D02F0B4F806
:10505000012084F8480084F83E0084F83F0084F87A
:10506000400084F8410084F8420084F8430084F84A
:10507000440084F8450084F8460084F8470084F82A
:105080003D00002010BD000010B586B0044614217C
:105090006846FBF775F91C4A21681C48914227D1E4
:1050A000016841F008010160006800F00800059007
:1050B00016480838016841F00101016000680121CB
:1050C000042200F00100059002200092CDE90101C8
:1050D000CDE903100E486946FDF7DAFA00220C21EB
:1050E0003220FEF779F83220FEF768F806B010BDDE
:1050F000084A9142FAD1016841F01001016000684C
:1051000000F010000590F1E7000C0040E844025860
:10511000000002580010004070B5044690F83C00B2
:105120000025012814D03A4B012684F83C60022067
:1051300084F83D0022689068184020F47F40906019
:10514000086870282FD010DC10F00F0F03D022E079
:105150004FF0020070BD4FEA2012072A1BD2DFE891
:1051600002F0535353534B394100B0F1101F4BD051
:1051700009DCB0F5805F0FD0B0F5005F1ED0B0F550
:10518000801F08D140E0A0F5801120393CD01029C3
:105190003AD0202938D0012584F83D60002084F8D9
:1051A0003C00284670BD4A682068D1E9021302F02D
:1051B00065F82068816841F0770109E04A68206855
:1051C000D1E9021302F05AF82068816841F4804165
:1051D0008160E1E7CA684968206802F0FFF9206849
:1051E000502106E0CA684968206802F049FA206840
:1051F000602102F04DF8CFE7CA684968206802F0E4
:10520000EDF920684021F4E7226801461046F0E7F6
:1052100088FFCEFF70472DE9F041054690F83C002D
:1052200000260C46012810D0012085F83C0072B100
:10523000042A1CD0082A2CD00C2A51D00126002088
:1052400085F83C003046BDE8F0810220FBE7E368CA
:105250002868D4E9001202F0D3F92868816921F0A6
:105260000C01816128688169A26811430FE0E3683D
:105270002868D4E9001202F015FA2868816921F43F
:105280004061816128688169A26841EA02218161E7
:10529000D5E7D4E900232868217B076A4FF4206C06
:1052A000090727F4807707620CEA0222C769D0F861
:1052B00020C027F003071F432CF4206C27F0F003D5
:1052C00042EA0C0243EA1161C16102622868C169C5
:1052D00021F00C01C1612868A268C169114329E06D
:1052E0002868D4E90032E168076A4FF6FF7C4FF482
:1052F000204E27F4805707620CEA0131C769D0F8C5
:1053000020C00EEA033327F4407747EA02222CF448
:10531000204C22F470421143C16143EA0C03036242
:105320002868C16921F44061C1612868A168C26927
:1053300042EA0121C16182E710B5040003D094F86C
:105340003D0010B107E0012010BD002084F83C00B2
:10535000204600F022F8022084F83D002068211D3C
:1053600001F02AFF012084F8480084F83E0084F808
:105370003F0084F8400084F8410084F8420084F83B
:10538000430084F8440084F8450084F8460084F81B
:10539000470084F83D00002010BD704770B50446FA
:1053A000006800250169C943890715D4C168C9434C
:1053B000890711D4EA1E02610121217720688069E2
:1053C0008007204602D0FFF725FF04E000F0D0F868
:1053D000204600F0A5F9257720680169C9434907EF
:1053E00017D4C168C943490713D402216FF00402DE
:1053F000026121772068806910F4407F204602D046
:10540000FFF708FF04E000F0B3F8204600F088F949
:10541000257720680169C943090716D4C168C943C3
:10542000090712D404216FF0080202612177206875
:10543000C0698007204602D0FFF7ECFE04E000F0D0
:1054400097F8204600F06CF9257720680169C94378
:10545000C90617D4C168C943C90613D408216FF01F
:105460001002026121772068C06910F4407F204655
:1054700002D0FFF7CFFE04E000F07AF8204600F0FB
:105480004FF9257720680169C943C90708D1C16868
:10549000C943C90704D1891E0161204600F041F9C2
:1054A00020680169C943090609D4C168C9430906CE
:1054B00005D46FF0800101612046FFF75FFD206891
:1054C0000169C943C90509D4C168C943090605D49E
:1054D0006FF4807101612046FFF74FFD206801697C
:1054E000C943490609D4C168C943490605D46FF0C8
:1054F00040010161204600F015F920680169C943A7
:1055000089060BD4C168C943890607D46FF020010E
:1055100001612046BDE87040FFF731BD70BD00005D
:1055200010B586B0044614216846FAF729FF0D49E4
:105530002068884214D10C48016841F004010160E0
:1055400000684021002200F0040005900220049031
:10555000CDE90010CDE9022004486946FDF798F82E
:1055600006B010BD00040040E04402580008025894
:10557000704770B5044690F83C0000260D4601289F
:105580000BD0012084F83C000C2A4AD007DC82B101
:10559000042A20D0082A06D131E0022070BD102A4A
:1055A00053D0142A63D00126002084F83C003046F2
:1055B00070BD206801F076FE2068816941F0080125
:1055C00081612068816921F00401816120682A6974
:1055D0008169114311E0206801F0B8FE20688169FB
:1055E00041F4006181612068816921F480618161F9
:1055F00020682969826942EA01218161D4E7206833
:1056000001F0F0FE2068C16941F00801C161206825
:10561000C16921F00401C16120682A69C16911438F
:1056200011E0206801F02AFF2068C16941F400619F
:10563000C1612068C16921F48061C1612068296964
:10564000C26942EA0121C161AEE7206801F052FF60
:105650002068416D41F0080141652068416D21F0ED
:105660000401416520682A69416D114311E02068F9
:1056700001F07AFF2068416D41F4006141652068C6
:10568000416D21F48061416520682969426D42EADB
:105690000121416588E710B5040003D094F83D006E
:1056A00010B107E0012010BD002084F83C00204626
:1056B00000F022F8022084F83D002068211D01F04E
:1056C0007BFD012084F8480084F83E0084F83F0008
:1056D00084F8400084F8410084F8420084F84300D4
:1056E00084F8440084F8450084F8460084F84700B4
:1056F00084F83D00002010BD08B5006806498842C6
:1057000008D10648016841F002010160006800F01C
:105710000200009008BD000000040040E844025868
:1057200070477047704730B590F88410012918D041
:10573000012280F884202421C0F88810002220242F
:1057400001680B680D6823F0005325F001050D601A
:10575000426601680B60C0F8884080F884201046DB
:1057600030BD022030BD7047704770B5044690F8D8
:10577000840001281DD0012284F884202420C4F84C
:10578000880020680568026822F001020260206833
:10579000826822F060620A438260204601F0A4FF22
:1057A0002268202100201560C4F8881084F8840045
:1057B00070BD022070BD70B5044690F884000128C9
:1057C0001DD0012284F884202420C4F88800206899
:1057D0000568026822F0010202602068826822F0F7
:1057E00060420A438260204601F07EFF2268202149
:1057F00000201560C4F8881084F8840070BD022071
:1058000070BD7047704770472DE9F041076800256B
:10581000044640F60F030226F8693968BA68184250
:105820000AD183067ED501F0200302F0805C53EAA2
:105830000C0377D0616F74E1CF4BDFF840C31340A6
:1058400001EA0C0C53EA0C0C6CD05FEAC07C0CD063
:105850005FEAC15C09D54FF0010CC7F820C0D4F84D
:10586000907047F00107C4F89070870709D5D707F3
:1058700007D027683E62D4F8906046F00406C4F86A
:10588000906046070AD5D60708D0276804263E62EE
:10589000D4F8906046F00206C4F8906006070CD574
:1058A00001F020061E4308D0266808233362D4F88E
:1058B000903043F00803C4F8903003050BD54B013A
:1058C00009D526684FF400633362D4F8903043F072
:1058D0002003C4F89030D4F89030002B3DD08006DF
:1058E00009D501F0200002F08051084303D0616F18
:1058F00009B1204688472168D4F890008968490694
:1059000002D410F0280F2AD0204601F0D3FF2068DF
:10591000806840061ED52068083050E8001F21F03E
:10592000400100E021E040E80012002AF3D1D4F861
:10593000800078B192490165D4F88000FBF7C4FE7D
:1059400000280AD0D4F88000016D00E02046BDE8B0
:10595000F04108472046FFF756FFBDE8F08120469A
:10596000FFF751FFC4F89050F7E7D4F86CC020233C
:10597000BCF1010F7ED15FEAC06C7BD55FEAC16CE0
:1059800078D51020386220688068400673D5D4F836
:1059900080107C4A0868904234D07A4A183290428B
:1059A00030D0784A303290422CD0764A48329042F9
:1059B00028D0744A6032904224D0724A78329042A1
:1059C00020D0704A903290421CD06E4AA832904249
:1059D00018D06D4A904215D06B4A1832904211D0BF
:1059E000694A303290420DD0674A4832904209D01D
:1059F000654A6032904205D0634A7832904201D0C5
:105A0000614A903240680004000CA6D0B4F85C20D3
:105A10008242A2D9A4F85E00C869B0F5807F2FD079
:105A2000216851E8000F20F4807041E80002002A4C
:105A3000F6D12068083050E8001F21F0010140E84D
:105A40000012002AF5D12068083050E8001F21F02C
:105A5000400140E80012002AF5D1C4F88C30E56618
:105A6000216851E8000F20F0100041E80002002AF0
:105A7000F6D101E040E00BE0D4F88000FBF774FCC5
:105A80002667B4F85C00B4F85E10401A81B22FE0CB
:105A9000B4F85C00B4F85E10B4F85E20401A81B22D
:105AA000002AB2D00029B0D0226852E8000F20F4BA
:105AB000907042E80007002FF6D1344F206800F1C3
:105AC000080050E8002F02EA070240E8002CBCF171
:105AD000000FF3D1C4F88C30E5666567206850E8A4
